:020000040800F2
:10000000F808002079830008097300080D730008C0
:1000100000000000000000000000000000000000E0
:100020000000000000000000000000001173000844
:1000300000000000000000001373000815730008A2
:10004000EF2D0008000000005F2F00088F3300082C
:10005000F3480008036400082B6700084B6B000896
:100060000000000067720008F37900083B83000875
:10007000478300080D8400080F840008000000007A
:10008000F5730008118400080000000013840008C4
:1000900015840008178400081D73000819840008DF
:1000A0001B8400081D8400081F84000821840008A8
:1000B0005B73000800B587B001A8142101F00CFAA9
:1000C000324800688021C9020143304801602F484E
:1000D00000688021C9020840009000982B48006801
:1000E0008021890201432948016028480068802155
:1000F0008902084000900098244800688021090384
:10010000014322480160214800688021090308401A
:100110000090009800221E491E4801F0D6FA0022E5
:100120008F2109029020C00501F0CFFA0022802122
:100130008901194801F0C9FA18480190012002907C
:10014000002003900020049001A9124801F0C6F994
:100150008F200002019001200290002003900020D7
:10016000049001A99020C00501F0B8F98020800119
:10017000019001200290002003900020049001A92A
:10018000054801F0ABF907B000BD000014100240B3
:100190002F14000000040048000800483F1400002D
:1001A00010B50400E4B22000202800D13AE22D2846
:1001B00001D100F022FE302879D0312800D1A2E010
:1001C000322800D1CBE0332800D1F4E0342800D12C
:1001D0001DE1352800D146E1362800D172E13728EB
:1001E00000D19BE1382800D1C4E1392800D1EDE1EC
:1001F0003D2801D100F0ABFD412800D13EE242286C
:1002000000D169E2432800D192E2452800D13DE3C4
:10021000462801D100F097FC492801D100F010FCDC
:100220004C2800D18BE3502801D100F061FC52280A
:1002300000D159E3532801D100F0B0FC552800D17A
:10024000CEE2592801D100F084FE5E2801D100F0F1
:1002500055FE5F2801D100F0A5FD642800D193E28E
:10026000682801D100F017FC692800D1BDE36A2895
:1002700001D100F0E9FC6E2801D100F0E9FD6F2802
:1002800000D187E3712801D100F009FD742801D164
:1002900000F0AFFC752800D1CDE27A2801D100F042
:1002A0002BFDCF2801D100F0FEFD00F07DFE0022E5
:1002B0000221834801F009FA00220121804801F05F
:1002C00004FA002204217E4801F0FFF90022802177
:1002D000C9007B4801F0F9F90022802149017848E2
:1002E00001F0F3F900222021754801F0EEF9012216
:1002F0001021734801F0E9F901220821704801F04A
:10030000E4F900F07BFE012202216D4801F0DDF9E5
:10031000002201216A4801F0D8F90022042168482E
:1003200001F0D3F901228021C900654801F0CDF91F
:10033000012280214901624801F0C7F901222021F0
:100340005F4801F0C2F9012210215D4801F0BDF9BA
:10035000012208215A4801F0B8F900F04FFE0022AE
:100360000221574801F0B1F900220121544801F05F
:10037000ACF901220421524801F0A7F900228021A2
:10038000C9004F4801F0A1F90022802149014C48E1
:1003900001F09BF901222021494801F096F9002241
:1003A0001021474801F091F901220821444801F049
:1003B0008CF900F023FE00220221414801F085F96A
:1003C000002201213E4801F080F9002204213C482E
:1003D00001F07BF900228021C900394801F075F94C
:1003E000012280214901364801F06FF901222021C4
:1003F000334801F06AF900221021314801F065F913
:10040000012208212E4801F060F900F0F7FD0122D9
:1004100002212B4801F059F900220121284801F05E
:1004200054F900220421264801F04FF901228021CD
:10043000C900234801F049F90122802149012048DF
:1004400001F043F9002220211D4801F03EF900226D
:1004500010211B4801F039F901220821184801F048
:1004600034F900F0CBFD00220221154801F02DF9EE
:1004700001220121124801F028F90022042110482C
:1004800001F023F900228021C9000D4801F01DF977
:100490000122802149010A4801F017F90022202198
:1004A000074801F012F900221021054801F00DF96A
:1004B00001220821024801F008F900F09FFD00BF69
:1004C0000004004800220221824801F0FEF80122C7
:1004D0000121804801F0F9F8002204217D4801F053
:1004E000F4F800228021C9007A4801F0EEF80022D9
:1004F00080214901774801F0E8F800222021754861
:1005000001F0E3F800221021724801F0DEF8012228
:100510000821704801F0D9F800F070FD0022022196
:100520006C4801F0D2F8002201216A4801F0CDF8B0
:1005300000220421674801F0C8F801228021C90087
:10054000644801F0C2F8012280214901614801F0AC
:10055000BCF8012220215F4801F0B7F801221021E8
:100560005C4801F0B2F8012208215A4801F0ADF8C8
:1005700000F044FD00220221564801F0A6F80022B6
:100580000121544801F0A1F800220421514801F052
:100590009CF800228021C9004E4801F096F8002204
:1005A000802149014B4801F090F800222021494860
:1005B00001F08BF800221021464801F086F8012254
:1005C0000821444801F081F800F018FD00220221C2
:1005D000404801F07AF8002201213E4801F075F808
:1005E000002204213B4801F070F800228021C9005C
:1005F000384801F06AF8012280214901354801F0AC
:1006000064F800222021334801F05FF80022102115
:10061000304801F05AF8012208212E4801F055F81F
:1006200000F0ECFC012202212A4801F04EF80122E0
:100630000121284801F049F801220421254801F050
:1006400044F801228021C900224801F03EF801222D
:10065000802149011F4801F038F8012220211D485E
:1006600001F033F8012210211A4801F02EF801227E
:100670000821184801F029F800F0C0FC00220221EE
:10068000144801F022F800220121124801F01DF85F
:10069000002204210F4801F018F801228021C9002E
:1006A0000C4801F012F8002280214901094801F0AC
:1006B0000CF800222021074801F007F80022102141
:1006C000044801F002F801220821024800F0FDFF71
:1006D00000F094FC0004004801220221814800F04F
:1006E000F4FF012201217F4800F0EFFF00220421E6
:1006F0007C4800F0EAFF00228021C900794800F020
:10070000E4FF002280214901764800F0DEFF00224C
:100710002021744800F0D9FF00221021714800F018
:10072000D4FF012208216F4800F0CFFF00F066FCE3
:10073000002202216B4800F0C8FF01220121694814
:1007400000F0C3FF01220421664800F0BEFF002232
:100750008021C900634800F0B8FF002280214901D0
:10076000604800F0B2FF002220215E4800F0ADFF9B
:10077000012210215B4800F0A8FF012208215948FE
:1007800000F0A3FF00F03AFC01220221554800F0DE
:100790009CFF00220121534800F097FF0022042112
:1007A000504800F092FF00228021C9004D4800F01F
:1007B0008CFF0022802149014A4800F086FF012277
:1007C0002021484800F081FF00221021454800F018
:1007D0007CFF01220821434800F077FF00F00EFC67
:1007E000012202213F4800F070FF002201213D4814
:1007F00000F06BFF002204213A4800F066FF00225F
:100800008021C900374800F060FF002280214901A3
:10081000344800F05AFF00222021324800F055FFF2
:10082000012210212F4800F050FF012208212D48FD
:1008300000F04BFFE2E3012202212A4800F045FFCD
:1008400001220121274800F040FF00220421254811
:1008500000F03BFF00228021C900224800F035FF54
:100860000022802149011F4800F02FFF0122202192
:100870001C4800F02AFF012210211A4800F025FF31
:1008800001220821174800F020FFB7E300220221CF
:10089000144800F01AFF01220121124800F015FF50
:1008A000012204210F4800F010FF00228021C9001E
:1008B0000C4800F00AFF002280214901094800F09D
:1008C00004FF00222021074800F0FFFE0022102133
:1008D000044800F0FAFE01220821024800F0F5FE6B
:1008E0008CE300BF00040048012202217F4800F091
:1008F000ECFE012201217D4800F0E7FE01220421E7
:100900007A4800F0E2FE01228021C900774800F019
:10091000DCFE002280214901744800F0D6FE01224D
:100920002021724800F0D1FE002210216F4800F013
:10093000CCFE012208216D4800F0C7FE5EE30122D3
:1009400002216A4800F0C1FE01220121674800F03F
:10095000BCFE01220421654800F0B7FE0022802180
:10096000C900624800F0B1FE0022802149015F48C1
:1009700000F0ABFE002220215C4800F0A6FE012220
:1009800010215A4800F0A1FE01220821574800F02A
:100990009CFE33E301220221544800F096FE01221E
:1009A0000121524800F091FE002204214F4800F03E
:1009B0008CFE00228021C9004C4800F086FE0022F7
:1009C00080214901494800F080FE0122202147484A
:1009D00000F07BFE00221021444800F076FE012248
:1009E0000821424800F071FE08E3012202213F483D
:1009F00000F06BFE012201213C4800F066FE00225F
:100A000004213A4800F061FE01228021C9003748E4
:100A100000F05BFE012280214901344800F055FEC0
:100A200001222021314800F050FE012210212F48E0
:100A300000F04BFE012208212C4800F046FEDDE2CA
:100A400001220221294800F040FE0022012127480E
:100A500000F03BFE00220421244800F036FE012273
:100A60008021C900214800F030FE01228021490187
:100A70001E4800F02AFE012220211C4800F025FE1D
:100A800001221021194800F020FE012208211748F8
:100A900000F01BFEB2E201220221144800F015FE14
:100AA00001220121114800F010FE002204210F480C
:100AB00000F00BFE01228021C9000C4800F005FE69
:100AC000002280214901094800F0FFFD0022202179
:100AD000064800F0FAFD00221021044800F0F5FD60
:100AE00001220821014800F0F0FD87E200040048DF
:100AF000002202217F4800F0E8FD002201217D480C
:100B000000F0E3FD012204217A4800F0DEFD01221D
:100B10008021C900774800F0D8FD002280214901DA
:100B2000744800F0D2FD00222021724800F0CDFD73
:100B3000002210216F4800F0C8FD012208216D48F5
:100B400000F0C3FD5AE2002202216A4800F0BDFD18
:100B500001220121674800F0B8FD01220421654807
:100B600000F0B3FD01228021C900624800F0ADFD14
:100B70000022802149015F4800F0A7FD00222021CA
:100B80005C4800F0A2FD002210215A4800F09DFDB3
:100B900001220821574800F098FD2FE2002202218F
:100BA000544800F092FD01220121524800F08DFDD1
:100BB000002204214F4800F088FD00228021C90056
:100BC0004C4800F082FD012280214901494800F093
:100BD0007CFD00222021474800F077FD00221021F3
:100BE000444800F072FD01220821424800F06DFDEA
:100BF00004E2012202213F4800F067FD01220121A9
:100C00003C4800F062FD012204213A4800F05DFDFD
:100C100000228021C900374800F057FD00228021C2
:100C20004901344800F051FD00222021314800F0F4
:100C30004CFD002210212F4800F047FD0122082121
:100C40002C4800F042FDD9E101220221294800F0A0
:100C50003CFD00220121274800F037FD002204213D
:100C6000244800F032FD00228021C900214800F014
:100C70002CFD0022802149011E4800F026FD0022A3
:100C800020211C4800F021FD00221021194800F00D
:100C90001CFD01220821174800F017FDAEE10022DB
:100CA0000221144800F011FD00220121114800F03A
:100CB0000CFD012204210F4800F007FD01228021D4
:100CC000C9000C4800F001FD0122802149010948BA
:100CD00000F0FBFC00222021064800F0F6FC002278
:100CE0001021044800F0F1FC01220821014800F025
:100CF000ECFC83E10004004800220221C04800F01F
:100D0000E4FC00220121BE4800F0DFFC01220421A6
:100D1000BB4800F0DAFC00228021C900B84800F08E
:100D2000D4FC002280214901B54800F0CEFC01220C
:100D30002021B34800F0C9FC00221021B04800F087
:100D4000C4FC01220821AE4800F0BFFC56E101229C
:100D50000221AB4800F0B9FC01220121A84800F0B3
:100D6000B4FC01220421A64800F0AFFC002280213F
:100D7000C900A34800F0A9FC012280214901A04834
:100D800000F0A3FC012220219D4800F09EFC0022DF
:100D900010219B4800F099FC01220821984800F09E
:100DA00094FC2BE101220221954800F08EFC0122E7
:100DB0000121934800F089FC01220421904800F0B1
:100DC00084FC00228021C9008D4800F07EFC0122B5
:100DD000802149018A4800F078FC012220218848BE
:100DE00000F073FC01221021854800F06EFC012206
:100DF0000821834800F069FC00E1012202218048BB
:100E000000F063FC012201217D4800F05EFC01221C
:100E100004217B4800F059FC01228021C900784858
:100E200000F053FC012280214901754800F04DFC7F
:100E300001222021724800F048FC00221021704855
:100E400000F043FC012208216D4800F03EFCD5E093
:100E5000012202216A4800F038FC01220121684881
:100E600000F033FC00220421654800F02EFC012232
:100E70008021C900624800F028FC0022802149013D
:100E80005F4800F022FC012220215D4800F01DFC9B
:100E9000002210215A4800F018FC0122082158486D
:100EA00000F013FCAAE000220221554800F00DFCDE
:100EB00000220121524800F008FC00220421504881
:100EC00000F003FC01228021C9004D4800F0FDFB29
:100ED0000022802149014A4800F0F7FB002220212E
:100EE000474800F0F2FB01221021454800F0EDFBDD
:100EF00001220821424800F0E8FB7FE000220221A5
:100F00003F4800F0E2FB012201213D4800F0DDFBFB
:100F1000012204213A4800F0D8FB01228021C900B7
:100F2000374800F0D2FB012280214901344800F00B
:100F3000CCFB01222021324800F0C7FB0122102106
:100F40002F4800F0C2FB012208212D4800F0BDFB14
:100F500054E0012202212A4800F0B7FB00220121BF
:100F6000274800F0B2FB00220421254800F0ADFB29
:100F700000228021C900224800F0A7FB0122802125
:100F800049011F4800F0A1FB002220211C4800F06D
:100F90009CFB002210211A4800F097FB0122082137
:100FA000174800F092FB29E001220221144800F0CA
:100FB0008CFB01220121124800F087FB0122042151
:100FC0000F4800F082FB01228021C9000C4800F08C
:100FD0007CFB012280214901094800F076FB0122B7
:100FE0002021074800F071FB01221021044800F085
:100FF0006CFB01220821024800F067FB10BD0000D5
:1010000000040048F8B504000025200000F07AFB39
:101010000500EDB2072D01DB062005000026EDB22C
:101020002F003800022100F08BFB86420BDAA05D16
:10103000B91B6118491E0978A155B91B6118491ED1
:101040000870761CEDE76E480078002800D090E02C
:10105000EDB2012D67D079D3032D3ED050D3052DAD
:1010600015D027D3062D71D1607966490870207993
:1010700065490870E07865490870A078644908708F
:10108000607864490870207863490870B7E0207977
:101090005C490870E0785C49087020205B49087062
:1010A000A0785B49087060785A49087020785A49DE
:1010B0000870A4E0E07853490870A078524908709D
:1010C0002020524908702020514908706078514909
:1010D000087020785049087091E06079494908709B
:1010E000207949490870E07848490870202048492B
:1010F00008702020474908702020474908707EE08A
:1011000060794049087020793F49087020203F49A4
:10111000087020203E49087020203E490870202099
:101120003D4908706BE060793649087020203649E7
:10113000087020203549087020203549087020208B
:101140003449087020203449087058E060792D49EE
:10115000087020792C490870E0782C490870A07834
:101160002B49087060782B49087020782A4908704C
:1011700045E0C348008840282DDAC248007800289E
:1011800016D0C04800780C2812DA20201D490870BB
:1011900020201D490870E0781C490870A0781C497F
:1011A000087060781B49087020781B49087024E09B
:1011B000202014490870202013490870202013496A
:1011C0000870A07812490870607812490870207879
:1011D0001149087011E060790A49087020790A49BC
:1011E0000870E07809490870A078094908706078AB
:1011F0000849087020780849087000200500F1BDF2
:10120000C3120020EE020020EF020020F0020020B6
:10121000F1020020F2020020F302002080B59A487B
:101220000078401E9849087097480078002800D13F
:10123000F0E0022800D191E000D2BDE0042831D0D6
:101240005ED3052800D013E101228021890090207F
:10125000C00500F03AFA01228021C9009020C005A3
:1012600000F033FA0122802109019020C00500F02E
:101270002CFA012280218901844800F026FA0122FB
:10128000802109029020C00500F01FFA80480078F4
:10129000FEF786FF0022802149009020C00500F063
:1012A00014FAE5E00122802149009020C00500F0F9
:1012B0000CFA01228021C9009020C00500F005FA37
:1012C0000122802109019020C00500F0FEF90122D1
:1012D000802189016D4800F0F8F90122802109027E
:1012E0009020C00500F0F1F96A480078FEF758FF39
:1012F0000022802189009020C00500F0E6F9B7E0C7
:101300000122802149009020C00500F0DEF9012271
:10131000802189009020C00500F0D7F901228021AA
:1013200009019020C00500F0D0F901228021890137
:10133000564800F0CAF90122802109029020C00518
:1013400000F0C3F954480078FEF72AFF00228021FC
:10135000C9009020C00500F0B8F989E00122802181
:1013600049009020C00500F0B0F9012280218900D9
:101370009020C00500F0A9F901228021C900902029
:10138000C00500F0A2F90122802189013F4800F048
:101390009CF90122802109029020C00500F095F9F6
:1013A0003E480078FEF7FCFE0022802109019020D3
:1013B000C00500F08AF95BE00122802149009020FD
:1013C000C00500F082F90122802189009020C0052B
:1013D00000F07BF901228021C9009020C00500F0B7
:1013E00074F90122802109019020C00500F06DF9F7
:1013F0000122802109029020C00500F066F92848EA
:101400000078FEF7CDFE0022802189011F4800F000
:101410005CF92DE00122802149009020C00500F0F8
:1014200054F90122802189009020C00500F04DF977
:1014300001228021C9009020C00500F046F9012258
:10144000802109019020C00500F03FF90122802190
:1014500089010E4800F039F912480078FEF7A0FE25
:101460000022802109029020C00500F02EF9FFE73C
:1014700005480078002802D106200349087001BD04
:10148000A8120020C4120020F40200200008004826
:10149000EE020020EF020020F0020020F102002006
:1014A000F2020020F3020020130030B414001500F3
:1014B000103902D310393CC0FCD2490700D30CC00C
:1014C00000D504C0890002D30280801C002900D509
:1014D000027030BC704700000022E5E7F8B502005A
:1014E00000230868D840002800D1DFE00868012602
:1014F0009E4006403400002C00D1D5E04868012809
:1015000008D04868022805D04868112802D04868E9
:1015100012281CD19068050003201E0002277E437C
:10152000B0408543C8681E0002277E43B040284370
:101530000500956050680500012098408543486883
:101540000600F606F60F9E402E4335005560D06823
:10155000050003201E0002277E43B04085438868B3
:101560001E0002277E43B04028430500D56048682E
:10157000022802D0486812281BD1D80804267043DC
:101580001018006A05000F201E007607760F04274A
:101590007E43B040854308691E007607760F042716
:1015A0007E43B04028430500D80804267043101835
:1015B00005621068050003201E0002277E43B0402C
:1015C000854308798007800F1E0002277E43B040C4
:1015D0002843050015604868C00065D5404800688C
:1015E000012606433E4806603D4800680600F607AF
:1015F000F60F009600983B489E0804277E438059CA
:1016000005000F201E00B607B60F04277E43B0402A
:1016100085439020C005824201D100200FE032486E
:10162000824201D101200AE03048824201D10220E9
:1016300005E02F48824201D1032000E005201E0072
:10164000B607B60F04277E43B0402843050025485F
:101650009E0804277E438551264800680500A5435F
:101660004868C00300D52543224805602248006829
:101670000500A5434868800300D525431E48056042
:101680001E4800680500A5434868C00200D52543F0
:101690001A4805601A4800680500A543486880029A
:1016A00000D52543164805605B1C1AE7F1BD00B55F
:1016B0000200136989B20B40002B02D001231800ED
:1016C00001E000231800C0B200BD00B5D2B2002A6C
:1016D00002D089B2816101E089B2816200BD00005F
:1016E00018100240080001400004004800080048AB
:1016F000000C0048000401400404014008040140BB
:101700000C040140010000E0491C0A78002AFBD1CA
:10171000081A7047F446002804D4494200F013F830
:10172000404260474042002905D45FD000F00BF8EA
:10173000404249426047494200F005F8494260474B
:1017400003460B43E6D40022030A8B420BD2030963
:101750008B4219D243088B422ED2411A00D2014645
:10176000524110467047FF2209023FD012068B42B9
:1017700005D3121209028B4201D312120902030986
:101780008B4219D300E0090AC3098B4201D3CB0174
:10179000C01A524183098B4201D38B01C01A5241B6
:1017A00043098B4201D34B01C01A524103098B42BA
:1017B00001D30B01C01A5241C3088B4201D3CB00A5
:1017C000C01A524183088B4201D38B00C01A524188
:1017D00043088B4201D34B00C01A5241884200D3C8
:1017E000401A5241CFD201461046704708B500F06A
:1017F00001F808BD70470268531C03601170704700
:10180000F1B5A4B00E0014001D004A487844FF3022
:10181000253003C822AA03C2049600200D9001E0DF
:101820000098241800206946C88022AB0022D243C9
:10183000210001A8801C01F04EF90090012805DA72
:101840002078411E8941C943C90F00916846C0886C
:101850002528009E00D1761E012E0EDB2700397848
:101860000498249A90470490002800D109E10D982B
:10187000401C0D907F1C761EF1D16846C08825283B
:1018800007D100200790089009900A900B900C90C7
:1018900008E06846C0880028C2D10D98F3E0010036
:1018A00001200843641C21782029F8D023290ED078
:1018B0002B2904D02D2907D030290BD00DE00100B1
:1018C0000220084380B2EDE701000420F9E701009F
:1018D0000820F6E701001020F3E72A290FD1296834
:1018E00029600A68091D29600F92002A05D5514216
:1018F0000F9101000420084380B2641C12E0002113
:101900000F910AE00F9A804B9A4205D093009A18E3
:101910005200511830390F91641C21780A00303A76
:101920000A2AEFD321782E2906D00021C9430E912F
:1019300021E000BF00690000641C21782A2907D13A
:10194000296829600A68091D29600E92641C12E04A
:1019500000210E910AE00E9A6B4B9A4205D093003B
:101960009A185200511830390E91641C21780A00DF
:10197000303A0A2AEFD302A90887267831000448B2
:1019800078440C3001F0B5F8002803D0641C02E064
:10199000AC680000002602A83A30067002A83A306F
:1019A0000078682804D12178682901D1622005E0F7
:1019B0006C2807D120786C2804D1712002A93A3113
:1019C0000870641C12A806902678641C3000253824
:1019D0002AD01C3800D1E0E0001F022800D8DCE04B
:1019E000133800D1FFE0093800D1D6E0801E00D1C5
:1019F00068E1401E00D140E1401E022800D8CCE042
:101A0000001F00D139E1401F00D197E0401E00D1F6
:101A1000E9E0401E39D0C01E0BD0801E00D1E2E0AC
:101A2000C01E00D1DFE070E1252012A9087001205E
:101A300075E102A83A3000786C282868286016D032
:101A40000668001D286005960E9F002F03D5300004
:101A5000FFF758FE09E03A000021300001F053F88A
:101A6000002801D0801B00E03800089058E102688F
:101A7000001D286002A9249800F032FA002800D442
:101A80004EE10020C04325B0F0BD28682860026800
:101A9000001D28600020C0430021104002AA03C29C
:101AA00012A80590069B3C2602A803C8002904D171
:101AB000002802D10E9A002A14D0761E0096020742
:101AC000120F3032D2B23A2A00DB27329A5500097F
:101AD0000A071043090901D1002803D0059A9F196C
:101AE000BA42EAD33C20801B0890991905910E99BF
:101AF00088420DDA081A0A9002A8008F03490140B3
:101B000002A801870CE100BFFFFFFF7FEFFF00008D
:101B1000002900D404E102A93831097814220A40CE
:101B2000102A00D0FCE00F99079A891A0A9A891A9C
:101B30000E1A012E00DAF3E00A96F1E002A83A301C
:101B40000078622819D0682806D06A280CD06C2842
:101B50001BD0712808D018E0286828600168001D93
:101B600028600D980880DBE0286828600268001D66
:101B700028600D98C11703C2D2E028682860016868
:101B8000001D28600D980870CAE028682860016868
:101B9000001D28600D980860C2E02A68D21D072049
:101BA00082432A6003CA2A6002AA03C2002902D51E
:101BB00007982D210AE002A8008F810702D5079817
:101BC0002B2103E0C00705D50798202112AA115444
:101BD000401C079012A8079940180590310002A8F0
:101BE00000F0AAFB9CE002A83A3000786C280BD0E9
:101BF000712801D06A2807D12A68D21D07208243A4
:101C00002A6003CA2A6005E0296829600868091D5E
:101C10002960002102AA03C202A83A30007868288D
:101C200003D102A803C880B20BE0622803D102A846
:101C300003C8C0B205E0742801D07A2804D102A8F4
:101C400003C8002102AA03C202A8383000780007A6
:101C50002FD502A803C8002901D1002829D02020AF
:101C60003043782825D10798302112AA1154401CFE
:101C7000411C079112A90E541BE0290002A83A301A
:101C8000007800F0F8F802AA03C202A8002902DADC
:101C900007982D2109E0008F810702D507982B2195
:101CA00003E0C00705D50798202112AA1154401C53
:101CB000079012A8079940180590310002A800F07B
:101CC000A1FA2DE002A83A3000786C2809D0012052
:101CD0000790286828600168001D286012A801701C
:101CE0001EE0286828600168001D286068460180A1
:101CF000002069464880C0430E906A4602A9249895
:101D000000F0EEF800280BD5BBE6252012A90870DC
:101D100001200790002E03D012A8467002200790E1
:101D20000F980799401A0A99401A0899401A0B9976
:101D3000401A0999401A0C99401A009002A83830AC
:101D40000078400711D420206946087100980128C6
:101D50000BDB009E012301AA02A9249800F0A3FE38
:101D6000002800D08DE6761EF4D1079F12AE002F1A
:101D70000DD031780498249A90470490002800D11F
:101D80007FE60D98401C0D90761C7F1EF1D130200F
:101D9000694608710A9E012E0ADB012301AA02A9E5
:101DA000249800F080FE002800D06AE6761EF4D168
:101DB000059E089F002F0DD031780498249A9047F3
:101DC0000490002800D15CE60D98401C0D90761C14
:101DD0007F1EF1D13020694608710B9E012E0ADB6F
:101DE000012301AA02A9249800F05DFE002800D07A
:101DF00047E6761EF4D1059808994618099F002FEA
:101E00000DD031780498249A90470490002800D18E
:101E100037E60D98401C0D90761C7F1EF1D13020C6
:101E2000694608710C9E012E0ADB012301AA02A952
:101E3000249800F038FE002800D022E6761EF4D167
:101E400002A838300078400700D4EBE4202069462F
:101E500008710098012800DAE4E4009E012301AA39
:101E600002A9249800F01FFE002800D009E6761E83
:101E700000D1D7E4F2E70A00622822D0682819D0FE
:101E80006A2808D06C2823D0712804D074281FD069
:101E90007A2808D01CE01368DB1D072083431360F9
:101EA00003CB13607047116811600868091D116049
:101EB00000217047116811600868091D116000B2A7
:101EC0000BE0116811600868091D116040B204E060
:101ED000116811600868091D1160C1177047000082
:101EE000F4B59AB007000C00206B002800D50E480E
:101EF000039000F014FE616B0818069009487844BE
:101F0000223003C807AA03C23820205C400702D44D
:101F1000069841280AD209A8029040200690002085
:101F2000059012E020630000FFFFFF7F00F0FCFD42
:101F300002900028F3D10020C04361E11A98801C70
:101F40001A9003980199401A03900398012800DA27
:101F5000D0E007AA1A98018800A8401C00F040FEB3
:101F60000190002800D5E2E01A980088002804D1EA
:101F70000198401E019000D5D9E00398019988424C
:101F800000DAB7E060690699019A8218914200D39D
:101F90009FE0002161634142206A081AA169401A4A
:101FA000616A401AE169401AA16A401A0490382017
:101FB000205C400711D4202069460870049801284D
:101FC0000BDB049D01236A462100380000F06BFD05
:101FD000002800D0ABE06D1EF4D16669029D002E92
:101FE0000CD02978A068B847A060002800D19EE0F6
:101FF000E06A401CE0626D1C761EF2D1302069461A
:102000000870256A012D0ADB01236A462100380089
:1020100000F049FD002800D089E06D1EF4D1E5688C
:10202000A669002E0BD02978A068B847A0600028C8
:102030007DD0E06A401CE0626D1C761EF3D130203A
:1020400069460870656A012D09DB01236A46210093
:10205000380000F028FD002869D16D1EF5D1E06838
:10206000A1694518E669002E0BD02978A068B84709
:10207000A06000285BD0E06A401CE0626D1C761E08
:10208000F3D1302069460870A56A012D09DB0123D0
:102090006A462100380000F006FD002847D16D1E79
:1020A000F5D13820205C400710D520206946087003
:1020B000049801280ADB049D01236A4621003800A8
:1020C00000F0F1FC002832D16D1EF5D10020059002
:1020D0006061019A00A9491C02986369C01800F068
:1020E0008BFD60690199401860611A98008800288A
:1020F00000D023E7059800287BD1606B6169401A06
:10210000216A401AA169401A616A401AE169401ABD
:10211000A16A461A3820205C400711D4012E0FDB3B
:1021200035002021A068B847A060002803D1002016
:10213000C04305905DE0E06A401CE0626D1EF0D196
:102140006369029A2100380000F0ADFC0028EED14E
:10215000256A012D0ADB3021A068B847A06000285D
:10216000E5D0E06A401CE0626D1EF4D1A369E2682C
:102170002100380000F097FC0028D8D1656A012DB5
:102180000ADB3021A068B847A0600028CFD0E06A01
:10219000401CE0626D1EF4D1E369E068A169421859
:1021A0002100380000F07FFC0028C0D1A56A012D75
:1021B0000ADB3021A068B847A0600028B7D0E06AE9
:1021C000401CE0626D1EF4D13820205C40070DD524
:1021D000012E0BDB35002021A068B847A060002845
:1021E000A5D0E06A401CE0626D1EF4D10020606161
:1021F0006063029809A9884201D000F02BFD059880
:102200001BB0F0BDF3B583B0006900906846027C56
:102210006F2A01D1082406E020211143782901D03A
:102220000A2400E010243C25039803C806000F0090
:10223000642A01D0692A07D1002905DA002000218B
:10224000801BB94106000F00002F12D1002E10D1C3
:102250000398006B00280CD1082C3CD1039838302F
:102260000078000737D53B25302000993B310870B6
:1022700031E06D1E0195300039002200E31700F0B7
:102280002DFD3032D2B23A2A03DB6846007C513849
:10229000121800984255300039002200E31700F070
:1022A0001DFD06000F0001D1002E05D00398C06867
:1022B000009949198842DCD3082C0CD10398383096
:1022C0000078000707D50098405D302803D06D1EC8
:1022D0003020009948553C20401B039988610099A3
:1022E0004919039AD1600399096B884209DA081ADF
:1022F000039908620398008F0E49014003980187F3
:1023000015E0002913D503993831097814220A40C1
:10231000102A0CD10399496B039A5269891A039ABE
:10232000126A891A0D1A012D01DB0398056205B0A6
:10233000F0BD0000EFFF0000F3B591B006AD03C89B
:1023400002AA03C212A8007820210143009161294A
:102350000BD01198006B002801D5062003E004D1B2
:10236000672902D10120119908631198416848003A
:10237000400DAB4A904225D1080310D11198006856
:1023800000280CD103201199886112A800786138C7
:102390001A2842D3234878448A3000900BE0032067
:1023A0001199886112A8007861381A2831D31E4823
:1023B000784474300090032200991198C06800F0AE
:1023C0001BFCF9E1012817DA119800F0BCFC012888
:1023D00012DB002700260098612832D11198C068CE
:1023E00030210170401C411C119AD16012A909785A
:1023F00061291FD178211EE011994968894A0A4054
:1024000089491143119A51608849461A0027FF43B0
:10241000E1E7064878441430CCE7054878441030AA
:10242000BBE700BF345E0000285E0000205E0000B5
:10243000245E00005821017011984069801C119998
:102440004861002F03D1002468468780AAE10098E4
:10245000612800D0A1E01198046B002C01D5212443
:1024600000E0641C24B2601C0090119803C804AA08
:1024700003C202A803C80022002300F086FC04A8BF
:1024800003C802D280221206514002AA03C2301FA2
:102490006946888000270F7606AE761C00980128D2
:1024A00034DB02A803C80022002300F087FC2DD2F1
:1024B0001C2102A800F09CFC02A803C800F026FD25
:1024C00005000098C01F009001280ADB280000F0DA
:1024D00047FD02000B0002A803C800F0BEFD02AADF
:1024E00003C2F61D072004E0761E2907090F31708C
:1024F0002D11012D01DB401EF6D5401E02D4761EA3
:102500003770FAE7F61D00980128CADA06A8401CC1
:10251000311A06AD6D1CA14200DA0C0024B2200075
:1025200032D4884205DA06A909184978082900DB5F
:102530000F2706A9091801E0641E491E401E0A78EB
:10254000BA42F9D00F2F04D106A909184A78521CB3
:102550004A70002806D506AD641C019800B2001D23
:102560006946888024B2601E0ED429180A78303259
:10257000D2B23A2A03DB12AB1B783A3BD2180A706C
:10258000401E491E0028F1D51198006B002800D488
:1025900008E1601E1199086304E102A803C8002243
:1025A000002300F0F2FB06D202A803C88022120624
:1025B000514002AA03C236B2804870438049FFF7F7
:1025C000BFF8694688800720019909B2421A0020A5
:1025D0007C49012A20DB049202AA30CA00260F009F
:1025E0000498C00707D532003B002000290000F006
:1025F000ABFD04000D000498401004903000390039
:1026000032003B0000F0A0FD06000F0004980028F7
:10261000E6D102A830C028E0544200266A4F18E0F4
:10262000FF070000FFFF0F800000E03FFE030000F7
:10263000E00707D504A803C832003B0000F084FD82
:1026400006000F00641004A803C804AA0CCA00F016
:102650007BFD04AA03C2002CEAD102A803C8320001
:102660003B0000F033FE02AA03C20098662803D1A3
:10267000019800B20A3000E006201199096B081891
:102680000490142801DB132004903020694608765A
:1026900006AC641C0498012840DB02A803C800F0C3
:1026A00047FC050008340594042428000A21FFF79C
:1026B0004AF80F0028000A21FFF745F805003037D7
:1026C0000598401E077028000A21FFF73CF80F000C
:1026D00028000A21FFF737F805000598801E0590AD
:1026E00030370770641EE0D1059C08340498083820
:1026F00004900128CEDB02A803C800F019FC00F00A
:1027000039FC02000B0002A803C800F0A6FC00225E
:102710002E4B00F019FD02AA03C2BEE706A8401C1A
:10272000201A06AD6D1C6A4605E0401E019909B2EB
:10273000491E91806D1C29783029F6D000996629B0
:1027400003D1019909B2491C04E0652901D1012195
:1027500000E00021119A126B541824B2A04200DA52
:10276000040024B221001DD4814204DA685C3528BB
:1027700001DB392000E030206A1800E0641E521EA0
:10278000491E13788342F9D0392802D1685C401C75
:102790006854002906D56D1E641C019800B2401CC7
:1027A00069468880019800B2009023B22A0012A8DE
:1027B0000178119800F00CF813B0F0BD9775000087
:1027C000A0860100000024400000F03F84D797411C
:1027D000F3B589B014001D0000F0F3FD0090406ACD
:1027E0000078694608720998076B012D01DA012506
:1027F000ACA40AA8017820200843109E662801D1C5
:10280000761C17E0672800D09EE00321C9438E4262
:1028100000DA9DE0BE4200DB9AE0761C0998383071
:102820000078000702D4BD4200DA2F0036B2BF1B89
:1028300000D500270998C06801900998806901991E
:102840000918009136B2012E2CDA401C3021009A72
:102850001170012F04DA099938310978090704D574
:102860006946097A019A1154401C0999886170429D
:10287000874200DA7E4236B2704209994862BF1937
:10288000AF4200DA3D002DB20998C5612A0021004F
:102890000198099B9B69C01800F0AEF9781B099953
:1028A0008862E0E0B54220DA2A002100009800F0BA
:1028B000A3F9099989694919099A9161701B099AC3
:1028C0005062012F04DA099838300078000709D5E2
:1028D0006846007A099AD26850540998C069401C29
:1028E0000999C86109988762BDE03200210000980B
:1028F00000F082F9099880698019AD1B012F04DA74
:10290000099938310978090705D56946097A099A7C
:10291000D2681154401C099988612DB2AF4200DA87
:102920003D002DB22A00A1190998C068099B9B6936
:10293000C01800F061F90998806940190999886107
:10294000781B099948628EE0612914D1702015E046
:10295000BD4205DA099938310978090700D42F00FA
:102960007F1E00D500270AA80078672801D16520BE
:1029700004E0452002E0412902D150200AA9087054
:1029800009988069411C099A9161099AD26801925B
:102990002278019B1A54641C0094012F04DA0998D0
:1029A0003830007800071CD5481C099A90616A46A7
:1029B000127A019B5A54012F13DB6D1E2DB2AF42C8
:1029C00000DA3D002DB22A000099019B181800F092
:1029D00013F909988069401909998861781B099948
:1029E00048620998C0680999896944180AA800785A
:1029F0002070300003D42B206070A41C03E02D2134
:102A00006170A41C4642002505AF08E00A2203A815
:102A100000F0F2FC04983870039E6D1C7F1C31B2EC
:102A20000129F3DA022D08DA0AA8007820210143EF
:102A3000652902D130202070641C002D09D130207E
:102A40002070641C07E06D1E05A8405D30302070CA
:102A5000641C012DF7DA0998C06809998969401842
:102A6000201A0999C861099838300078142101406A
:102A7000102914D109984069099989694018099960
:102A8000496A40180999C96940180999896A401822
:102A90000999496B884202DA081A099908620BB051
:102AA000F0BD00003000F1B50E0014000027002B2F
:102AB0000FD01D002178B068009A9047B0600028C0
:102AC00006D0F06A401CF062641C6D1E01D0F1E774
:102AD000FF433800F2BDF8B504000F0015001E00DA
:102AE00000F09AFC33002A003900200000F0A8FC16
:102AF000F2BDC9B200E0401C02788A4202D0002A2E
:102B0000F9D100207047C9B201E0401C521E002AD2
:102B100003D003788B42F8D170470020704780B50E
:102B200000F07AFC012002BD70B505002C000F34C6
:102B300007208443C046C046A54233D2082C04D2A5
:102B4000082402E0083000F085F8244802681100EB
:102B50000CD1011D0A68002A20D01368A34212D2AA
:102B6000111DF7E71D68A5420DD2191D0B68002B3A
:102B7000F8D11268011D00E0191D0B6893420DD0B9
:102B80001D68A542F8D300290CD00D682A681300EF
:102B9000083BA3420AD26A680A600FE000F06EFCAC
:102BA0000028CFD1C046C046002070BD2B190B6055
:102BB0006E685E60121B0B681A602C600968002941
:102BC00004D04A68002A01D0091D00E000210160FC
:102BD000C046C0460835280070BD00004C120020D9
:102BE00070B504000D00160000F016FC320029003C
:102BF000200000F01BFC70BD124207D08B0706D0EE
:102C00000B78491C0370401C521EF7D8704783078D
:102C100006D00B78491C0370401C521EF9D1704736
:102C200070B4103A03D378C9103A78C0FBD2530776
:102C300001D318C918C001D508C908C0D20704D3E8
:102C40000B880380891C801C002A01D50B78037037
:102C500070BC7047002800D1704738B508380400B0
:102C60002068082836D3400734D1C046C0461A48E9
:102C70004168002901D08C4203D26160446019E0B0
:102C800019004B68002B01D0A342F9D30B68CD1873
:102C9000AC421DD3A54204D122689A180A600C00E8
:102CA00008E04A68002A03D02368E3189A420FD349
:102CB00062604C60616800290AD02268A3188B42C8
:102CC00006D100230360086810182060486860601F
:102CD000C046C04631BD00004C120020124224D034
:102CE000994228D970B500251B4202D00C00002162
:102CF00009E00024012649186441944200D3A41A33
:102D00007641F8D33100012601E0764109D200185E
:102D100064416D41A41A9D41F7D2A4185D41B619D2
:102D2000F5D3300022002B0070BD1B42D8D108B56E
:102D300000F0BAFB08BD01D19042D3D202000B00D3
:102D400000210020704730B401004B688022120639
:102D50001A4001201B031B0B4B600BD10B68002B8F
:102D600008D10DE00B686400DD0F25434D605B006A
:102D70000B60401E4C68E302F4D523031B0B4B6031
:102D80004B681A434A6030BC704730B40124640574
:102D90004D00EC420BD85D00EC4208D80C001C43FF
:102DA00064000443144304D2994200D1904230BCE1
:102DB0007047FCD08B42FAD18242F8E730B401244C
:102DC00064054D00EC420BD85D00EC4208D80C00C5
:102DD0001C4364000443144304D28B4200D182425A
:102DE00030BC7047FCD09942FAD19042F8E7FEE738
:102DF00070B504000D0060684000400D3F4EB042C9
:102E000007D16068000302D12068002816D0022094
:102E100070BD002804D12000FFF795FF01286BDA70
:102E2000012D0DDB311A8D420AD36068002802D5CE
:102E30000020334901E00020310503C4012070BDAA
:102E40004142A942616806DA2E4A0A402818000564
:102E50001043606047E0802212061140626812034E
:102E6000120B80235B0313436360401E2D18002068
:102E70002A003532352A02D36160206070BD0022FD
:102E80001E23DB439D4204DA2035226863682360F9
:102E90006060684211D0521E9241D243D20F20236B
:102EA0001B1A25689D402A432568C54066689E40D8
:102EB0002E4326606368C3406360606808436060B7
:102EC0001148824206D28020000682420ED120782C
:102ED000C0070BD52068401C20602068002805D161
:102EE0006068401C60600020C04370BD606888421C
:102EF000F9D120680028F6D1002070BDFF0700003E
:102F00000000F0FFFFFF0F8001000080F4464A1828
:102F100005D200F00FF801D580174008604700F097
:102F200009F80121C907884200D9080040426047DA
:102F30004A1812D2400DC90208430121C9070843AB
:102F4000520D40210901521A521C06D452421F321E
:102F500001D4D0407047C017704700207047FEE78B
:102F6000010009D5F446404200F006F80122D207DC
:102F700011436047010000BF42221201D21E0042ED
:102F800007D002D4521E0018FCD5C10A4005120514
:102F900089187047F0B40125ED070F005F404FD44A
:102FA0008B4200D1824205D98446100062468C468D
:102FB00019006346DF184C18640D7F0D3AD0661C6B
:102FC000760537D0E61B352E34DCDB022B43DB0ADB
:102FD0000C0DC9022943C912202E0DDB1700203E1B
:102FE00006D01F00F741F3405F400026012A7741D9
:102FF000C01871410DD217E01700F741F240574059
:10300000F3415A40B340F3405A40002680185941DA
:103010000AD3A21C52050FD0C207012F724117001C
:103020004008CB0718434908641C24054208AF41F7
:1030300070416141F0BC7047641C21050020F9E734
:103040006B4010E06B40ABE7F742F3D1E943F1E7A7
:103050002442EFD100200021ECE7F0B40125ED0778
:103060000F005F40EED40C00871A9C4105D2C01BB4
:10307000A141D219634169406B40AE0ADF184C1878
:10308000F442E1D2640D7F0DE2D0E61B362ED1DC96
:10309000DB022B43DB0AA4460C0DC9022943C90AF3
:1030A000012E28DC04D1D6075208DF073A435B081B
:1030B000EF0A76429041994114D039423BD1B6197A
:1030C00040414941761C394204D1761C00184941DF
:1030D0003942FAD0B9436746B74208D9A41B240540
:1030E0002143A7E70042EAD13642E8D1A2E7E40A49
:1030F000E10700209EE7202E0BDD203E1F00F3405D
:10310000F7415F40012A002257417E429841914198
:103110000BE01700F741F2405740F3415A40B340EB
:10312000F3405A407E42904199410A0303D2641E03
:10313000B619404149410027641E24054208AE41AA
:1031400078416141F0BC7047F0B50E005E4001254A
:10315000ED072E40B446AE0ADF184C18F44208D2F0
:10316000F7420ED2640D01D07F0D12D100206146CE
:10317000F0BD05D1F74201D87F0D05D10020C14334
:10318000F0BDFBD1640DF9D00020C14349054908C9
:103190008FE0E419C902DB0229432B43DB0A460D09
:1031A000C00231438E4630B487B295B27D432E0CB7
:1031B000ADB2140C7C43A419260C240425439CB204
:1031C0007C43A419190C7943270CC919A4B20F0424
:1031D0003C43090C000C97B247432E0CBE193543F3
:1031E000ADB2170C4743360CBF19A6B2BF193E0447
:1031F0003543240C3E0C36199FB24743BF19BCB26D
:103200003E0C89191F0C47437F183E043443390C88
:10321000704680B297B247432E0CBE193543ADB20B
:10322000170C4743360CBF19A6B2BF193E043543ED
:10323000240C3E0C36199FB24743BF19BCB23E0C5A
:1032400089191F0C47437F183E043443390C7746D5
:103250003F0C90B278432E0C80190604ADB22E4379
:10326000050CA0B22D18120C7A435019020C80B232
:10327000240CA4189AB27A43121914042043120C95
:1032800089181B0C7B43C91830BCEF0A394203D1A3
:10329000B61940414941641E6F12BF0DE41B0BDBA0
:1032A000FF19BC4211DA240500274208AE417841DB
:1032B000614166463143F0BD641C05D1401C61414B
:1032C000CF0201D34908F4E750E75DE7F0B40E0000
:1032D0005E400125ED072E40B446AE0ADF184C18BB
:1032E000F4423BD2F74241D2640D43D07F0D38D037
:1032F000E41BC902DB0229432B43CF0ADB0A060089
:10330000B61A9F4104D2641EB6197F41B6185F41B8
:103310006812800D24180018844222DAE80C00217B
:10332000B6197F41B61A9F4102D2B6185F413F1CC1
:1033300040414941F4D3241C21DD2405B6197F41C5
:10334000B61A9F4105D33743C60737430026012FDE
:103350007041614166463143F0BC7047FCD1F74291
:1033600005D20020C14349054908F3E704D00020F5
:10337000C143F1E77F0DFAD000206146ECE724421B
:10338000FAD1401C61410F03F6D30020E2E7FEE7CB
:1033900080B5124800F089F811A101604160816098
:1033A000C1600161416181610EA242628162C162BC
:1033B000016341630CA282630DA2C2630164416494
:1033C00001BD10B5054800F070F804002068002821
:1033D00001D1FFF7DDFF200010BD0000F00100204B
:1033E000000000002E00000066616C7365000000A4
:1033F00074727565000000007CB504000E001500B5
:1034000030002900FEF79CF900904543701B0190A5
:10341000684603C803C476BD80B5034800F045F88C
:10342000806902BD0000000080020020002804D155
:103430000EA003C803C2002070470170012070472E
:10344000002904D10BA003C803C300207047002A41
:1034500002D10120C0437047002801D00A780280C1
:103460000978481E8041C043C00F7047000000002B
:10347000000000000000000000000000074908688C
:10348000002801D0002070470548072290430860BB
:1034900004499143091A0160704700BF901200204F
:1034A000FF080020F80E002070477047F0B583B089
:1034B0000400002C01D1012074E22078C00775D5EA
:1034C000AD4800680C21014004290ED0AA480068CC
:1034D0000C210140082911D1A74800688021490228
:1034E000084080214902884208D1BB480068800317
:1034F0005CD56068002859D1012053E2606801283A
:1035000007D1B5480068802149020143B2480160F3
:103510002DE0606800280CD1AF480068AF49014039
:10352000AD480160AC480068AD490140AA4801605F
:103530001DE0606805280ED1A74800688021C902F7
:103540000143A5480160A448006880214902014365
:10355000A14801600BE0A0480068A04901409E48D6
:1035600001609D4800689E4901409B480160606879
:1035700000280DD000F057FB050097480068800335
:1035800014D400F050FB401B6528F6D3032009E259
:1035900000F049FB050090480068800306D500F064
:1035A00042FB401B6528F6D30320FBE1207880070F
:1035B00057D5714800680C210140002909D06E4898
:1035C00000680C210140082916D16B480068C0032F
:1035D00012D481480068800704D5E068012801D032
:1035E0000120DFE17C480068F82188432169C90097
:1035F00001437948016034E0E06800281DD0764836
:103600000068012101437448016000F00CFB0500D3
:1036100071480068800706D400F005FB401B0328B2
:10362000F6D30320BEE16C480068F8218843216985
:10363000C90001436848016013E067480068012140
:1036400088436549086000F0EEFA050062480068AA
:10365000800706D500F0E7FA401B0328F6D30320C5
:10366000A0E1207800072AD5E069002813D0BC48E3
:10367000006801210143BA48016000F0D4FA050056
:10368000B748006880071AD400F0CDFA401B032821
:10369000F6D3032086E1B248006801218843B0498F
:1036A000086000F0C0FA0500AD480068800706D544
:1036B00000F0B9FA401B0328F6D3032072E120780A
:1036C000400700D497E00026B7480068C0000FD438
:1036D000B5480068802149050143B3480160B248FC
:1036E00000688021490508400090009801200600EC
:1036F000AE480068C00514D4AC4800688021490079
:103700000143AA48016000F08EFA0500A74800684E
:10371000C00506D400F087FA401B6528F6D30320C5
:1037200040E1A068012806D1A148006801210143B9
:103730009F4801602EE0A06800280CD19C480068DA
:10374000012188439A490860994800680421884308
:10375000974908601EE0A06805280FD194480068CA
:10376000042101439248016091480068012101430E
:103770008F4801600EE000BF041002408C480068D2
:10378000012188438A4908608948006804218843E8
:1037900087490860A06800280ED000F044FA0500B0
:1037A0008348006880071DD400F03DFA401B814922
:1037B0008842F5D30320F5E000F035FA05007C4897
:1037C000006880070ED500F02EFA401B7949884228
:1037D000F5D30320E6E000BF00100240FFFFFEFF2C
:1037E000FFFFFBFFF6B2012E05D16F48006872495A
:1037F00001406D4801602078C00655D560690128F8
:1038000023D16E480068042101436C4801606B4875
:103810000068012101436948016000F004FA0500D5
:1038200066480068800706D400F0FDF9401B0328B5
:10383000F6D30320B6E061480068F8218843A16907
:10384000C90001435D4801602EE060690421C9435D
:1038500088420FD1594800680421884357490860BD
:1038600056480068F8218843A169C90001435348BC
:10387000016019E051480068042101434F4801608C
:103880004E480068012188434C49086000F0CBF99C
:1038900005004A480068800706D500F0C4F9401BBF
:1038A0000328F6D303207DE0206A002879D09248CF
:1038B00000680C210140082954D0206A02283AD11E
:1038C0008E4800688E4901408C48016000F0ABF9D9
:1038D00005008A480068800106D500F0A4F9401B65
:1038E0000328F6D303205DE0A84800680F21884331
:1038F000E16A0143A54801607F48006881490140B1
:10390000A06A0843616A01437B4801607B48006804
:103910008021490401437948016000F084F90500E1
:103920007648006880013CD400F07DF9401B0328F4
:10393000F6D3032036E071480068714901406F48B2
:10394000016000F070F905006C480068800128D51E
:1039500000F069F9401B0328F6D3032022E000BFE2
:1039600024100240206A012801D101201AE0624897
:1039700000680700854800680190802040023840B8
:10398000616A88420BD101980007000FE16A884202
:1039900005D1F02080033840A16A884201D001207F
:1039A00000E00020FEBD00001C100240007000403E
:1039B0002010024089130000FFFFFFEF3410024087
:1039C00070B505000C00002D01D1012093E0764870
:1039D00000680100C907C90FA1420FD272480068F0
:1039E000012188432043704908606F480068010046
:1039F000C907C90FA14201D001207CE028788007C7
:103A000011D52878400706D53B480068E021C90059
:103A100001433948016038480068F0218843A968AB
:103A20000143354801602878C00732D5686801280D
:103A300005D132480068800310D401205BE068683B
:103A4000022805D12D480068800107D4012052E0EA
:103A50002A480068800701D401204CE0264800680D
:103A600003218843696801432348016000F0DBF8C3
:103A70000600214800680C210140686880008142EE
:103A800007D000F0D0F8801B48498842F1D30320CA
:103A900031E0454800680100C907C90F8C420FD2C8
:103AA000414800680121884320433F4908603E485F
:103AB00000680100C907C90FA14201D001201AE026
:103AC0002878400707D50C48006839490140E86864
:103AD00008430949086000F017F83649064A126899
:103AE00012091207120F895CC84033490860002090
:103AF00000F070F8002070BD041002400010024079
:103B0000FFFFFFFEFFFFC2FFF0B589B005A82C49FB
:103B10001022FFF785F801A82A491022FFF780F844
:103B2000002400200090002500260027234800687C
:103B300004000C202040042802D0082803D01DE0F7
:103B4000214807001CE005A8A10C0907090F405CEB
:103B5000060001A80D4909680907090F405C00909B
:103B6000E00306D518480099FDF7EDFD7043050008
:103B700002E01648704305002F0001E012480700DC
:103B8000380009B0F0BD0C48006870472C100240A6
:103B900080B5FFF7F8FF0E49084A1268120A52076B
:103BA000520F895CC84002BD00200240891300000A
:103BB000FFF8FFFF68830008EC01002004100240BA
:103BC000488300085883000800127A0000093D006D
:103BD0000484000810B50400FA2080001349097815
:103BE000FDF7B1FD010012480068FDF7ACFD00F0E3
:103BF0009CF8002801D001200CE0042C09D20022FE
:103C000021000020C04300F07FF80A480460002033
:103C100000E0012010BD08480068044909784018F8
:103C2000054908607047044800687047F6020020A4
:103C3000EC010020E80100208C12002000B540B209
:103C4000002805D40121C206D20E91403A4A1160E3
:103C500000BDF0B540B200281BD4384A40B28308FA
:103C600004246343D258FF238407A40F08256C4320
:103C7000A3409A438B01DBB28407A40F08256C4351
:103C8000A34013432D4A40B2840804256C431351CA
:103C900020E02B4C40B20207120F083A950804228C
:103CA0005543274A40B203071B0F083B9B080426D5
:103CB0007343D258FF238607B60F08277E43B340CD
:103CC0009A438B01DBB28607B60F08277E43B340C9
:103CD00013436351F0BD10B50400601E80214904F8
:103CE000884201D301200EE0601E164908600321BE
:103CF0000020C043FFF7ADFF0020134908600720F4
:103D000012490860002010BD70B504000D001600B7
:103D10002900200040B2FFF79CFF70BD10B50400E1
:103D2000200040B2FFF78AFF10BD10B5040020004C
:103D3000FFF7D1FF10BD000000E100E000E400E06B
:103D40001CED00E014E000E018E000E010E000E00E
:103D500000B583B060480078002803D002283BD02B
:103D60002CD3B1E05D480088002803D0022822D07F
:103D70000AD322E05A4802685A49684600F074FBA8
:103D80006846FDF73FF918E057480078002802D050
:103D9000012808D00EE05549684600F065FB6846EA
:103DA000FDF730F906E05249684600F05DFB6846D1
:103DB000FDF728F901E000F099FD8BE04D484E49F0
:103DC00009780422514342584C49684600F04CFBA4
:103DD0006846FDF717F97DE04748007802280DD0C6
:103DE0006ED3042820D014D3062833D027D3082834
:103DF00046D03AD30A2859D04DD361E03D483E49D8
:103E000009780422514342583D49684600F02CFB92
:103E100056E0384838490978042251434258394914
:103E2000684600F021FB4BE0324833490978042210
:103E3000514342583449684600F016FB40E02D4893
:103E40002D4909780422514342583049684600F010
:103E50000BFB35E027482849097804225143425892
:103E60002B49684600F000FB2AE0224822490978E5
:103E70000422514342582749684600F0F5FA1FE0F2
:103E80001C481D490978042251434258224968467A
:103E900000F0EAFA14E01748174909780422514360
:103EA00042581E49684600F0DFFA09E011481249FD
:103EB00009780422514342581949684600F0D4FA5F
:103EC0006846FDF79FF805E00020034908700020D0
:103ED0000949087007BD0000C31200209612002097
:103EE0005812002094830008C61200209C8300080A
:103EF000A483000800000020C4120020AC83000846
:103F0000B4830008BC830008C4830008CC83000885
:103F1000D4830008DC830008E4830008EC830008F5
:103F2000F483000880B5C848008815284BDB0020C2
:103F3000C54908800020C54908700122022190204F
:103F4000C005FDF7C2FB0A20C1490880C148C2492B
:103F50000880C248007800280DD1C1480088002898
:103F600003D10120BE4908802DE0BD480088401ED5
:103F7000BB49088027E0BB48BB490978042251436C
:103F80004058BA49B84A127804235A43895888429B
:103F90000CDBB448B4490978042251434058B34972
:103FA000B14A127804235A4388500CE0AF48AE4916
:103FB0000978042251434058401EAC49AA4A12785D
:103FC00004235A438850AA480088152848DB012258
:103FD00002219020C005FDF778FB0A209C4908804B
:103FE0000020A34908800020A24908709B4800785F
:103FF00000280DD19A480088002803D00020984955
:1040000008802DE096480088401C9549088027E0EC
:10401000964895490978042251434058D349924A19
:10402000127804235A43895888420CDBCF488E49C2
:1040300009780422514340588C498B4A1278042352
:104040005A4388500CE08948874909780422514333
:104050004058401C8549844A127804235A438850AA
:104060007E480078002800D1B2E080219020C00571
:10407000FDF71DFB00284DD1BD480078002849D030
:1040800080210901BB48FDF712FB002842D075488A
:10409000754909780422514340587449724A12788C
:1040A00004235A43895888420CDB6E486E490978CC
:1040B0000422514340586D496B4A127804235A43F5
:1040C000885023E0AC480078401CAB490870AA48EF
:1040D00000780F281ADB012202219020C005FDF78D
:1040E000F4FA05205A4908800020A34908705F4867
:1040F0005D490978042251434058A0490978401A83
:104100005A49594A127804235A438850514852490F
:10411000088002E000209849087080210901954834
:10412000FDF7C5FA002850D19548007800284CD0FA
:1041300080219020C005FDF7BAFA002845D04548F7
:104140004549088049484849097804225143405864
:104150008649454A127804235A43895888420CDB21
:104160008248414909780422514340583F493E4A18
:10417000127804235A43885023E0AD480078401C4D
:10418000AB490870AA4800780F281ADB01220221E7
:104190009020C005FDF799FA05202D4908800020E0
:1041A000A3490870314830490978042251434058E6
:1041B000A049097840182D492B4A127804235A4304
:1041C000885024482449088002E00020984908705B
:1041D0009948008815284FDB012202219020C00554
:1041E000FDF773FA0A201A490880002092490880D6
:1041F00000209249087019480078002817D002283A
:1042000001D010D35BE08E4813490880164800782F
:10421000401C15490870144800780B2802DB042064
:10422000114908704BE086480B49088047E001209F
:104230000A4908708248084908800B480078401CE9
:10424000094908703BE000BF98120020BC12002012
:10425000A01200208813000094120020C312002036
:104260009612002070000020C412002000000020E0
:104270009A120020BD1200207248007802281ED039
:104280007148007800281AD002206E490870012079
:104290006E4908706A486E49088001220221902008
:1042A000C005FDF712FA0A206A4908800020664915
:1042B0000870002060490880002060490870664846
:1042C000008815282DDB5F48007800281AD00122CD
:1042D00002219020C005FDF7F8F90A205D49088009
:1042E00000205D49088000205C4908700020554985
:1042F000087000205549087000205949088000F0D6
:1043000011FB0EE0012202219020C005FDF7DDF92E
:104310000A205049088000204F49088000204F495A
:1043200008704848007800281DD0494800880028B7
:1043300019D1012202219020C005FDF7C6F90A20FB
:1043400044490880002044490880002043490870FF
:1043500000203C49087000203C490870002040497A
:10436000088000F0DFFA00F00DF801BD38000020F1
:10437000C012002000040048BE120020D912002004
:10438000C112002000B531480078012804D003286C
:1043900027D0042838D049E032482C490978042233
:1043A000514340582F49C968884207DB2D48C068EF
:1043B0002C49264A127804235A4388502948234915
:1043C000097804225143405826490969884207DA8E
:1043D0002448006923491D4A127804235A4388500F
:1043E00024E02048194909780422514340581D49C6
:1043F0000969884207DA1B4800691A49134A12788A
:1044000004235A43885011E01648104909780422C1
:10441000514340581349C968884207DB1148C068B6
:1044200010490A4A127804235A43885000BD0000FC
:10443000BF120020D81200209C120020BA120020C7
:1044400088130000C3120020C2120020C4120020F2
:1044500094120020A01200209E120020BB12002007
:1044600096120020000000200CB41CB5040004A823
:104470000190009401AB0A006946084878441C305A
:10448000FDF7BEF90021009A1170002801D40098B0
:10449000001B02B0019910BC03B008475BD3FFFFBB
:1044A00072B6AF480068401CAD490860704700B55F
:1044B000AB480068401EAA490860A9480068002867
:1044C00000D162B600BD38B500F09BF800F0E2F90B
:1044D000FBF7F0FD00F026F900F046F900F0C3F814
:1044E00000F05DFA00249F48C06900280CD0022823
:1044F00012D00DD3042817D012D306281CD017D3FE
:10450000082821D01CD323E09620000104001FE0DE
:104510009620400104001BE096208001040017E073
:10452000E1208001040013E09620C00104000FE0A8
:10453000E120C00104000BE096200002040007E027
:10454000E1200002040003E0E12040020400FFE754
:1045500000258448806A002802D0012803D005E0A5
:104560000020050002E001200500FFE70020009088
:10457000230000227B48406A0100C9B22800C0B273
:1045800000F028FAB749087000F09BFAB5490870A6
:104590000020B5490870B54800F08EFBB44908709A
:1045A000B2480068B3490880AF480078002819D0A5
:1045B00000F099FAAB490870002000902300002217
:1045C0006848406A0100C9B22800C0B200F002FA8F
:1045D000A449087000F075FAA24908700020A249A9
:1045E000087003E000F0CAFA9E490870B2480078EB
:1045F000002802D000F004F8CDE7FFF7A9FBCAE7D6
:10460000704700B591B004A83021FCF765FF6846FB
:104610001021FCF761FF0220049001200790102078
:10462000089002200C9000200D90802040030E90F6
:1046300000200F9004A8FEF739FF002801D000F0F9
:1046400055F90720009002200190002002900020E0
:10465000039000216846FFF7B3F9002801D000F06D
:1046600045F911B000BD00B585B09448006801213E
:10467000014392480160914800680100C907C90FD1
:104680000091009801A80C21FCF726FF8C488D4969
:1046900008608020C0058B494860002089498860F7
:1046A00000208849C86001208649086104208549A6
:1046B000486100208349087600208249487601201D
:1046C0008049887600207F49C876FF20C2307D4926
:1046D000C86100207B49086201207B4908700120E5
:1046E00078498862774800F08FFB002801D000F0FD
:1046F000FDF80020019080204001029007200390E7
:1047000001A9704800F0C3FC002801D000F0EEF8C9
:104710006C4800F025FE01226C496A4800F058FC04
:1047200005B000BD80B56A486A490860172069492C
:10473000486000206749886031206649C8600020D1
:10474000644908610020634948610020614988612B
:10475000604800F06FFE002801D000F0C7F801BDEE
:104760005C1200200000002000B587B05A480068A5
:10477000022101435848016057480068022108405F
:104780000090009803A81021FCF7A6FE534803C828
:1047900001AA03C2083A524852490860C8204000A2
:1047A0005049486000204F49886021204D49C86029
:1047B00000204C49086100204A498861494800F0BE
:1047C00039FE002801D000F091F8802040010390CC
:1047D00003A9444800F083FF002801D000F086F8C8
:1047E000002001900020029001A93E4801F094F8B9
:1047F000002801D000F07AF8002202211020FFF7F3
:1048000083FA1020FFF78AFA364800F04BFE07B013
:1048100000BD70B50300002089B200291DD089B207
:1048200092B28D18082D18DA89B22F4D2D884D1BA4
:104830002C0092B2002A12D00E4D02266643AD5BC8
:10484000ADB22D0A1D705B1C0A4D02266643AD5B9E
:104850001D705B1C641C521EEBE701252800C0B2D2
:1048600070BD0000C7120020D51200205812002091
:10487000C51200202812002010B404000020C0B28D
:1048800010BC704710B40400012010BC7047030036
:104890000120704781B009480068802189020143E6
:1048A00006480160054800688021890208400090A0
:1048B000009801B070470000DA1200201410024086
:1048C00000240140A8110020CC1100205412002027
:1048D00000480140D41000201C100240FC83000856
:1048E000000400401C110020EC02002000B572B64C
:1048F000FEE7FEE780B50020009001F098F8002068
:104900002F4908602F482E49486001202C498860B3
:1049100069462B4801F010F9002800D0FEE701F0AD
:104920009AF801BD38B5274D0020009001F07FF8BE
:104930000020254908602348234948600120224976
:1049400088606946204801F0F7F8002800D0FEE7AB
:104950000024E4B20E2C0FDA1C48E4B204216143B7
:104960004258D3172900022001F014F8002802D180
:104970002D1D641CEDE7FEE701F06DF831BD10B5AB
:1049800010480021C9B20E2908DA02680F4BC9B2DB
:1049900004244C431A51001D491CF3E710BD80B597
:1049A000084800680A49884207D0FFF7A3FF084873
:1049B00006490860FFF7B6FF01E0FFF7E0FF01BD21
:1049C0003412002000FC00084012002000000020EB
:1049D000A5A50000F5B581B00D001F00089E0024BC
:1049E000EDB2002D05D0EDB2002D02D0EDB2F82DC4
:1049F00002DB0220040061E0484805706846007947
:104A0000002802D0012823D045E0454845490860E8
:104A1000454846490860464846490860464847496F
:104A200008600020464908604648474908604748F2
:104A3000474908604748484908603300DBB23A00FC
:104A40006846017A3548007801F0F6F8040024E061
:104A50004248344908604248344908604148354971
:104A600008604148354908600020354908603F48E2
:104A7000354908603E48364908603E483649086076
:104A80003300DBB23A006846017A2448007801F02E
:104A90006BFA040001E002200400E4B2002C0DD106
:104AA00001F0B0FC002802D10320040006E06846B3
:104AB0000079314908700120754908702000C0B2A2
:104AC000FEBD10B5002472480078012806D11548B3
:104AD0000068804700206E49087001E0062004004D
:104AE0002000C0B210BD10B569480078002808D178
:104AF0000E480068804701206549087000200400C6
:104B000008E063480078012802D10020040001E099
:104B1000062004002000C0B210BD0000C812002012
:104B2000955C000864120020B35C00086812002045
:104B30002D5D000860120020CB5C00086C12002084
:104B400070120020B95D000874120020535E000846
:104B500078120020D15E00087C120020AF5F0008B0
:104B6000CF5F00084B600008E75F0008C3600008E3
:104B70000962000815630008C912002038B5002535
:104B800043480078002801D0062080E0684601F004
:104B900046FC01287AD168460078002805D0022812
:104BA0001CD003D3032871D070E06FE03A4A3B4930
:104BB0003B483C4B1B6898470500EDB2002D0CD1DB
:104BC0003748007838490978884203D0344800785B
:104BD000002802D1022001F01AFC57E02F4800689B
:104BE0000078324908700120314908700020040023
:104BF000102C1BDA274808216143405C002815D09F
:104C0000244808216143405C2849097888420BD137
:104C10002149224800681F4A08236343D21852687A
:104C200090472349087001E0641CE1E71C480078C4
:104C300000282AD01E48007800281CD000201649E1
:104C400008801A4800788021014314480068124AFD
:104C50001288815410480088401C0F49088014486D
:104C600000780E4909680C4A128888540A4800885E
:104C7000401C0949088008480288084801680A4819
:104C800000780C4B1B6898470500FFE7002032BDF9
:104C9000F502002050010020AA12002080120020FE
:104CA000CA1200206C120020C8120020CB12002073
:104CB000CC12002060120020FEB5070000260C2E4A
:104CC00000DB95E00020050000200A2804DA4949AD
:104CD00009686D18401CF8E728000A21FCF733FD2D
:104CE00005004548854201D3012082E0D72080009D
:104CF000854201D201207CE000200400641C3F4872
:104D0000A4B2042161434058A842F7D3A4B2002CB6
:104D100000D0641E3A48A4B204216143405801F017
:104D200093FB010002913648A4B20421614340186C
:104D3000406801F089FB00903148A4B2042161432E
:104D4000405801F081FB0100009801F0D0FB010008
:104D50000191280001F084FB00902849A4B20420AE
:104D60006043085801F070FB0100009801F0BFFBA0
:104D7000019901F014FC01902048A4B20421614380
:104D80004018406801F060FB00901C49A4B2042068
:104D90006043085801F058FB0100009801F0A7FBA0
:104DA0000100019801F053FC029901F068FB01F049
:104DB000A3FC01F0BBFCFEF7A9F838603868114984
:104DC0004969401801F0C4FC0B2E03DB386801F080
:104DD000BFFC386038688D2801DB022009E03868A4
:104DE0002721C943884201DA032002E0761C66E7E6
:104DF0000020FEBD5412002099080000A8000020E9
:104E0000FC0000200000002070B5040000250026F2
:104E1000002C01D10120D4E0A06B002807D1002094
:104E2000E063002034216054200001F074FDA06B89
:104E3000C00600D5BDE0EDB2002D00D0B9E020687D
:104E40008068400700D5B4E0A06B5E4901400220B5
:104E50000843A063206880688007800F012809D17B
:104E600020680068C00703D42068C068000401D52A
:104E7000012000E0002000280FD12068C068182120
:104E80008843A16801432068C160206800698000F0
:104E9000800861680143206801612068C0684A4950
:104EA00001402068C160A06A012802D08020400132
:104EB00000E000202169022901D1042100E0002145
:104EC000227E9303627ED2031A43A37E5B031343C5
:104ED0001843E268024311432420205C4000084349
:104EE00030430600E07E01280FD1A07E002804D1C7
:104EF000300080267602064307E0A06B20210143A4
:104F0000A163E06B01210143E163E069FF21C2314C
:104F1000884204D03100E069266A06430E432068C7
:104F2000C06830432168C860E06A80214905884232
:104F300014D0E06A012811D0E06A02280ED0E06A9D
:104F400003280BD0E06A042808D0E06A052805D0C1
:104F5000E06A062802D0E06A07280ED1206840697E
:104F60000721884321684861206840692C21615CE1
:104F70004907490F0143206841612068C06813490F
:104F80000140B14208D10020E063A06B02218843B8
:104F900001210143A16312E0A06B0221884310218B
:104FA0000143A163E06B01210143E163012005009E
:104FB00005E0A06B10210143A1630120050028003A
:104FC000C0B270BDFFFEFFFF1902FEFFE7FF3F8387
:104FD000F8B504000F00160000252068806840071F
:104FE00044D43420205C012801D1022042E0012079
:104FF00034216054607E012803D0200000F0FBF8CB
:105000000500EDB2002D33D1A06B1B49014080207B
:1050100040000843A0630020E06300203421605476
:105020001648216B88621648216BC8621548216BAF
:1050300008631C2021680860206840681021014333
:10504000206841602068C068012101432068C16078
:1050500033003A0021684031206B01F0F7FC2068F2
:105060008068042101432068816001E0022005007E
:105070002800C0B2F2BD0000FEF1FFFFB1520008EF
:10508000355300084353000870477047704778B5A0
:1050900004000D00002600200090E06A80214905F0
:1050A000884213D0E06A012810D0E06A02280DD0AF
:1050B000E06A03280AD0E06A042807D0E06A0528DD
:1050C00004D0E06A062801D0E06A07283420205C7A
:1050D000012801D102208DE0012034216054206894
:1050E000806840077BD468686D4988425BD020683F
:1050F000806A01212A689140014320688162E06A48
:1051000080214905884229D0E06A012826D0E06A3A
:10511000022823D0E06A032820D0E06A04281DD0AA
:10512000E06A05281AD0E06A062817D0E06A072846
:1051300014D0A868216849694907490F88420DD0F1
:1051400020684069072188432168486120684069D8
:10515000297A4907490F01432068416128681028CE
:1051600002D02868112840D12868102802D1802058
:10517000000401E08020C0034A4909680843494906
:1051800008602868102830D1474800684749FCF774
:10519000DAFA0A21484300900098002825D00098A8
:1051A000401E0090F8E72068806A01212A6891403B
:1051B0008843216888622868102802D0286811284E
:1051C00013D12868102802D18020000401E080203B
:1051D000C0033449096881433248016005E0A06B8F
:1051E00020210143A16301200600002034216054E6
:1051F0003000C0B272BD38B5040000250020009018
:10520000206880688007800F012809D12068006825
:10521000C00703D42068C068000401D5012000E065
:105220000020002838D120688068404901400029CA
:1052300009D0A06B10210143A163E06B0121014360
:10524000E163012029E02068806801210143206892
:105250008160154800681549FCF775FA00900098C0
:10526000002803D00098401E0090F8E7FEF7DBFC12
:10527000050020680068C0070ED4FEF7D4FC401B70
:105280000328F6D3A06B10210143A163E06B012139
:105290000143E163012000E0002032BD0000000076
:1052A0000110000008270140EC01002040420F00DF
:1052B00038B50400656AA86B5021014000292FD140
:1052C000A86B802189000143A9632868C068C021B8
:1052D0000901014000291FD1A87E00281CD128689F
:1052E0000068000718D52868806840070CD4286833
:1052F00040680C21884329684860A86B0C4901402C
:1053000001200843A86307E0A86B20210143A9639B
:10531000E86B01210143E9632800FFF7B5FE03E0D4
:105320002000296B096B884731BD00001700008001
:10533000FFFEFFFF38B50400656A2800FFF7A5FEF1
:1053400031BD38B50400656AA86B40210143A963EB
:10535000E86B04210143E9632800FFF797FE31BDA4
:10536000F8B504000025002600273420205C012821
:1053700001D102205BE00120342160542068806864
:105380008007800F012809D120680068C00703D476
:105390002068C068000401D5012000E0002000283A
:1053A0003AD1A06B2249014002200843A063206843
:1053B000C0688007800F07002068C0680321884309
:1053C0002168C86020688068802109060143206840
:1053D0008160FEF728FC06002068806800280FD551
:1053E000FEF721FC801B0328F6D3A06B0221884323
:1053F00010210143A163002034216054012016E0F4
:105400002068C06838432168C860A06B02218843C7
:1054100001210143A16305E0A06B20210143A163A9
:10542000012005000020342160542800C0B2F2BDE4
:10543000FFFEFFFF10B50400002C01D1012030E079
:105440003D20205C002805D100203C216054200034
:1054500001F0EEF902203D2160542100091D206871
:1054600000F0C1F901204621605401203E21605422
:1054700001203F216054012040216054012041213E
:1054800060540120422160540120432160540120D6
:105490004421605401204521605401203D21605485
:1054A000002010BD00B501003D20085C012801D09E
:1054B000012029E002203D23C8540868C068012368
:1054C00003430868C3600868214B984207D0086806
:1054D000204B984203D008681F4B98420DD10868B2
:1054E00080684007400F0200062A0CD00868006858
:1054F000012303430868036005E00868006801238E
:10550000034308680360002000BD00B5010008687F
:10551000C068012290430A68D0600868006A0A4A9D
:105520000240002A0BD10868006A084A0240002A9B
:1055300005D108680068012290430A6810600120C4
:105540003D228854002000BD1111000044040000D9
:10555000002C0140000400400040014010B5040050
:105560002068006980071BD52068C068800717D5B0
:105570000220C043216808610120207720688069EB
:105580008007800F002803D0200000F029F905E0F3
:10559000200000F024F9200000F023F900202077FB
:1055A0002068006940071CD52068C068400718D5EE
:1055B0000420C043216808610220207720688069A8
:1055C000C02189000140002903D0200000F008F923
:1055D00005E0200000F003F9200000F002F90020AF
:1055E00020772068006900071BD52068C068000785
:1055F00017D50820C043216808610420207720685F
:10560000C0698007800F002803D0200000F0E8F870
:1056100005E0200000F0E3F8200000F0E2F80020B0
:10562000207720680069C0061CD52068C068C006C5
:1056300018D51020C0432168086108202077206811
:10564000C069C02189000140002903D0200000F07A
:10565000C7F805E0200000F0C2F8200000F0C1F813
:105660000020207720680069C0070AD52068C0683C
:10567000C00706D50120C04321680861200000F062
:10568000ADF82068006900060AD52068C0680006E9
:1056900006D58020C04321680861200000F079F918
:1056A0002068006940060AD52068C068400606D513
:1056B0004020C04321680861200000F093F8206872
:1056C000006980060AD52068C068800606D52020BB
:1056D000C04321680861200000F05AF910BD70B580
:1056E00004000D003C20205C012801D1022071E063
:1056F00001203C21605402203D21605420688068D4
:105700000600772086433000334E064020688660CE
:105710002868002852D0102850D020284ED0302899
:105720004CD0402840D050282AD0602832D0702851
:1057300009D080214901884204D080218901884212
:1057400010D040E03FE0EB686A68A968206800F08C
:10575000D0F820688068060030007726064320686D
:10576000866030E0EB686A68A968206800F0C1F8DC
:10577000206880688021C90101432068816022E09F
:10578000EA686968206800F07DF85021206800F020
:10579000A6F818E0EA686968206800F088F86021D7
:1057A000206800F09CF80EE0EA686968206800F064
:1057B00069F84021206800F092F804E02968206828
:1057C00000F08DF8FFE701203D21605400203C21CE
:1057D0006054002070BD0000FF00FFFF704770475D
:1057E00070477047704700B503681A001E4B984217
:1057F00002D01E4B984204D170239A4313004A688A
:105800001A43194B98420ED0184B98420BD0184BA4
:10581000984208D0174B984205D0174B984202D0B7
:10582000174B984205D11300144A1A401300CA6856
:105830001A4380239A4313004A691A4302608B6813
:10584000C3620B688362084B984208D0094B9842A8
:1058500005D0094B984202D0094B984201D10B69FF
:1058600003630123436100BD002C0140000400409C
:10587000002000400040014000440140FFFCFFFFC9
:105880000048014070B4056A2C00056A0126B54342
:10589000056285692B00F025AB431D0013012B43E6
:1058A0000A25AC430C438361046270BC704770B43A
:1058B000056A1026B543056285692B00056A2C0030
:1058C0001D00134B2B401D0013032B43A025AC439D
:1058D00025000C012C438361046270BC704783680F
:1058E0001A0070239A43130007220A431A43826066
:1058F000704770B485682C002500064C2C402600AB
:1059000015000D431C022C433443846070BC704767
:10591000FF0FFFFFFF00FFFF30B502003C20105CCF
:10592000012801D102202CE001203C255055022005
:105930003D255055106840680300106880680400D9
:105940007020834318000B6803431068436010689D
:105950000C4DA84207D010680B4DA84203D0106828
:105960000A4DA84206D18020844320004C6804439D
:105970001068846001203D25505500203C2550557D
:10598000002030BD002C01400004004000400140D8
:1059900070477047F1B50CB40F00012500240026B4
:1059A0003248007E012801D102203FE001202F492A
:1059B00008762D4800F06AF80500EDB2002D30D1D0
:1059C0000298012802D10120060007E0029802286F
:1059D00002D10220060001E004200600002004009D
:1059E000E4B2F6B2B4421CD2684603C81022624345
:1059F00001F09CF8010089B2E4B20220604338183B
:105A000000F038F8184800F041F805001848006820
:105A10000121884316490860EDB2002D01D1641CB4
:105A2000DEE70020114908762800C0B2FEBD00B5AF
:105A300000200F49096809060BD53B493B4A116014
:105A40003B493A4A11600A490968090601D5012112
:105A50000800C0B200BD0648006880210143044828
:105A6000016000207047000050C3000008120020B1
:105A70001020024000222B4BDA612E4A12680123CB
:105A800013432C4A136001807047000038B50400AE
:105A9000FEF7C9F8050022480068C0070CD50020B1
:105AA000C0438442F7D0002C04D0FEF7BCF8401B62
:105AB0008442F0D2032013E019480068800602D522
:105AC00020201749086016480068C00603D414480F
:105AD0000068400703D500F004F8012000E0002032
